{
  "contractName": "MicoinCrowdsale",
  "abi": [
    {
      "constant": true,
      "inputs": [],
      "name": "hasClosed",
      "outputs": [
        {
          "name": "",
          "type": "bool"
        }
      ],
      "payable": false,
      "stateMutability": "view",
      "type": "function"
    },
    {
      "constant": true,
      "inputs": [],
      "name": "finalRate",
      "outputs": [
        {
          "name": "",
          "type": "uint256"
        }
      ],
      "payable": false,
      "stateMutability": "view",
      "type": "function"
    },
    {
      "constant": true,
      "inputs": [],
      "name": "rate",
      "outputs": [
        {
          "name": "",
          "type": "uint256"
        }
      ],
      "payable": false,
      "stateMutability": "view",
      "type": "function"
    },
    {
      "constant": true,
      "inputs": [],
      "name": "weiRaised",
      "outputs": [
        {
          "name": "",
          "type": "uint256"
        }
      ],
      "payable": false,
      "stateMutability": "view",
      "type": "function"
    },
    {
      "constant": true,
      "inputs": [],
      "name": "closingTime",
      "outputs": [
        {
          "name": "",
          "type": "uint256"
        }
      ],
      "payable": false,
      "stateMutability": "view",
      "type": "function"
    },
    {
      "constant": true,
      "inputs": [],
      "name": "wallet",
      "outputs": [
        {
          "name": "",
          "type": "address"
        }
      ],
      "payable": false,
      "stateMutability": "view",
      "type": "function"
    },
    {
      "constant": true,
      "inputs": [],
      "name": "initialRate",
      "outputs": [
        {
          "name": "",
          "type": "uint256"
        }
      ],
      "payable": false,
      "stateMutability": "view",
      "type": "function"
    },
    {
      "constant": true,
      "inputs": [],
      "name": "openingTime",
      "outputs": [
        {
          "name": "",
          "type": "uint256"
        }
      ],
      "payable": false,
      "stateMutability": "view",
      "type": "function"
    },
    {
      "constant": false,
      "inputs": [
        {
          "name": "_beneficiary",
          "type": "address"
        }
      ],
      "name": "buyTokens",
      "outputs": [],
      "payable": true,
      "stateMutability": "payable",
      "type": "function"
    },
    {
      "constant": true,
      "inputs": [],
      "name": "getCurrentRate",
      "outputs": [
        {
          "name": "",
          "type": "uint256"
        }
      ],
      "payable": false,
      "stateMutability": "view",
      "type": "function"
    },
    {
      "constant": true,
      "inputs": [],
      "name": "token",
      "outputs": [
        {
          "name": "",
          "type": "address"
        }
      ],
      "payable": false,
      "stateMutability": "view",
      "type": "function"
    },
    {
      "inputs": [
        {
          "name": "_openingTime",
          "type": "uint256"
        },
        {
          "name": "_closingTime",
          "type": "uint256"
        },
        {
          "name": "_rate",
          "type": "uint256"
        },
        {
          "name": "_initialRate",
          "type": "uint256"
        },
        {
          "name": "_finalRate",
          "type": "uint256"
        },
        {
          "name": "_wallet",
          "type": "address"
        },
        {
          "name": "_token",
          "type": "address"
        }
      ],
      "payable": false,
      "stateMutability": "nonpayable",
      "type": "constructor"
    },
    {
      "payable": true,
      "stateMutability": "payable",
      "type": "fallback"
    },
    {
      "anonymous": false,
      "inputs": [
        {
          "indexed": true,
          "name": "purchaser",
          "type": "address"
        },
        {
          "indexed": true,
          "name": "beneficiary",
          "type": "address"
        },
        {
          "indexed": false,
          "name": "value",
          "type": "uint256"
        },
        {
          "indexed": false,
          "name": "amount",
          "type": "uint256"
        }
      ],
      "name": "TokenPurchase",
      "type": "event"
    }
  ],
  "bytecode": "0x608060405234801561001057600080fd5b5060405160e080610982833981018060405281019080805190602001909291908051906020019092919080519060200190929190805190602001909291908051906020019092919080519060200190929190805190602001909291905050508383888888868660008311151561008557600080fd5b600073ffffffffffffffffffffffffffffffffffffffff168273ffffffffffffffffffffffffffffffffffffffff16141515156100c157600080fd5b600073ffffffffffffffffffffffffffffffffffffffff168173ffffffffffffffffffffffffffffffffffffffff16141515156100fd57600080fd5b8260028190555081600160006101000a81548173ffffffffffffffffffffffffffffffffffffffff021916908373ffffffffffffffffffffffffffffffffffffffff160217905550806000806101000a81548173ffffffffffffffffffffffffffffffffffffffff021916908373ffffffffffffffffffffffffffffffffffffffff16021790555050505042821015151561019757600080fd5b8181101515156101a657600080fd5b816004819055508060058190555050508082101515156101c557600080fd5b6000811115156101d457600080fd5b8160068190555080600781905550505050505050505050610788806101fa6000396000f3006080604052600436106100af576000357c0100000000000000000000000000000000000000000000000000000000900463ffffffff1680631515bc2b146100ba57806321106109146100e95780632c4e722e146101145780634042b66f1461013f5780634b6753bc1461016a578063521eb273146101955780639e51051f146101ec578063b7a8807c14610217578063ec8ac4d814610242578063f7fb07b014610278578063fc0c546a146102a3575b6100b8336102fa565b005b3480156100c657600080fd5b506100cf6103c8565b604051808215151515815260200191505060405180910390f35b3480156100f557600080fd5b506100fe6103d4565b6040518082815260200191505060405180910390f35b34801561012057600080fd5b506101296103da565b6040518082815260200191505060405180910390f35b34801561014b57600080fd5b506101546103e0565b6040518082815260200191505060405180910390f35b34801561017657600080fd5b5061017f6103e6565b6040518082815260200191505060405180910390f35b3480156101a157600080fd5b506101aa6103ec565b604051808273ffffffffffffffffffffffffffffffffffffffff1673ffffffffffffffffffffffffffffffffffffffff16815260200191505060405180910390f35b3480156101f857600080fd5b50610201610412565b6040518082815260200191505060405180910390f35b34801561022357600080fd5b5061022c610418565b6040518082815260200191505060405180910390f35b610276600480360381019080803573ffffffffffffffffffffffffffffffffffffffff1690602001909291905050506102fa565b005b34801561028457600080fd5b5061028d61041e565b6040518082815260200191505060405180910390f35b3480156102af57600080fd5b506102b86104ae565b604051808273ffffffffffffffffffffffffffffffffffffffff1673ffffffffffffffffffffffffffffffffffffffff16815260200191505060405180910390f35b60008034915061030a83836104d3565b61031382610500565b905061032a8260035461052890919063ffffffff16565b60038190555061033a8382610544565b8273ffffffffffffffffffffffffffffffffffffffff163373ffffffffffffffffffffffffffffffffffffffff167f623b3804fa71d67900d064613da8f94b9617215ee90799290593e1745087ad188484604051808381526020018281526020019250505060405180910390a36103b18383610552565b6103b9610556565b6103c383836105c1565b505050565b60006005544211905090565b60075481565b60025481565b60035481565b60055481565b600160009054906101000a900473ffffffffffffffffffffffffffffffffffffffff1681565b60065481565b60045481565b600080600080610439600454426105c590919063ffffffff16565b92506104526004546005546105c590919063ffffffff16565b915061046b6007546006546105c590919063ffffffff16565b90506104a66104958361048784876105de90919063ffffffff16565b61061690919063ffffffff16565b6006546105c590919063ffffffff16565b935050505090565b6000809054906101000a900473ffffffffffffffffffffffffffffffffffffffff1681565b60045442101580156104e757506005544211155b15156104f257600080fd5b6104fc828261062c565b5050565b60008061050b61041e565b905061052083826105de90919063ffffffff16565b915050919050565b6000818301905082811015151561053b57fe5b80905092915050565b61054e828261067c565b5050565b5050565b600160009054906101000a900473ffffffffffffffffffffffffffffffffffffffff1673ffffffffffffffffffffffffffffffffffffffff166108fc349081150290604051600060405180830381858888f193505050501580156105be573d6000803e3d6000fd5b50565b5050565b60008282111515156105d357fe5b818303905092915050565b6000808314156105f15760009050610610565b818302905081838281151561060257fe5b0414151561060c57fe5b8090505b92915050565b6000818381151561062357fe5b04905092915050565b600073ffffffffffffffffffffffffffffffffffffffff168273ffffffffffffffffffffffffffffffffffffffff161415151561066857600080fd5b6000811415151561067857600080fd5b5050565b6000809054906101000a900473ffffffffffffffffffffffffffffffffffffffff1673ffffffffffffffffffffffffffffffffffffffff1663a9059cbb83836040518363ffffffff167c0100000000000000000000000000000000000000000000000000000000028152600401808373ffffffffffffffffffffffffffffffffffffffff1673ffffffffffffffffffffffffffffffffffffffff16815260200182815260200192505050600060405180830381600087803b15801561074057600080fd5b505af1158015610754573d6000803e3d6000fd5b5050505050505600a165627a7a7230582096702738c0848f626105112e92500a112ea44618a2f97af0722d8dc56d6c48c50029",
  "source": "pragma solidity 0.4.23;\n\nimport \"zeppelin-solidity/contracts/crowdsale/Crowdsale.sol\";\nimport \"zeppelin-solidity/contracts/crowdsale/price/IncreasingPriceCrowdsale.sol\";\n\n\ncontract MicoinCrowdsale is IncreasingPriceCrowdsale {\n\n    constructor (\n    uint256 _openingTime,\n    uint256 _closingTime,       \n    uint256 _rate,\n    uint256 _initialRate,\n\tuint256 _finalRate,\n    address _wallet,\n    TokenERC20 _token\n  )\n    public\n    Crowdsale(_rate, _wallet, _token)\n    TimedCrowdsale(_openingTime, _closingTime) \n\tIncreasingPriceCrowdsale(_initialRate,_finalRate)\n  {\n  }\n\n}\n",
  "sourcePath": "/Users/i055123/micoincrowdsale/contracts/MicoinCrowdsale.sol",
  "compiler": {
    "name": "solc",
    "version": "0.4.23+commit.124ca40d.Emscripten.clang"
  },
  "schemaVersion": "2.0.0",
  "updatedAt": "2018-05-26T17:27:59.182Z"
}